{
  "contractName": "Color",
  "abi": [
    {
      "inputs": [],
      "stateMutability": "nonpayable",
      "type": "constructor"
    },
    {
      "anonymous": false,
      "inputs": [
        {
          "indexed": true,
          "internalType": "address",
          "name": "owner",
          "type": "address"
        },
        {
          "indexed": true,
          "internalType": "address",
          "name": "approved",
          "type": "address"
        },
        {
          "indexed": true,
          "internalType": "uint256",
          "name": "tokenId",
          "type": "uint256"
        }
      ],
      "name": "Approval",
      "type": "event"
    },
    {
      "anonymous": false,
      "inputs": [
        {
          "indexed": true,
          "internalType": "address",
          "name": "owner",
          "type": "address"
        },
        {
          "indexed": true,
          "internalType": "address",
          "name": "operator",
          "type": "address"
        },
        {
          "indexed": false,
          "internalType": "bool",
          "name": "approved",
          "type": "bool"
        }
      ],
      "name": "ApprovalForAll",
      "type": "event"
    },
    {
      "anonymous": false,
      "inputs": [
        {
          "indexed": true,
          "internalType": "address",
          "name": "from",
          "type": "address"
        },
        {
          "indexed": true,
          "internalType": "address",
          "name": "to",
          "type": "address"
        },
        {
          "indexed": true,
          "internalType": "uint256",
          "name": "tokenId",
          "type": "uint256"
        }
      ],
      "name": "Transfer",
      "type": "event"
    },
    {
      "inputs": [
        {
          "internalType": "address",
          "name": "to",
          "type": "address"
        },
        {
          "internalType": "uint256",
          "name": "tokenId",
          "type": "uint256"
        }
      ],
      "name": "approve",
      "outputs": [],
      "stateMutability": "nonpayable",
      "type": "function"
    },
    {
      "inputs": [
        {
          "internalType": "address",
          "name": "owner",
          "type": "address"
        }
      ],
      "name": "balanceOf",
      "outputs": [
        {
          "internalType": "uint256",
          "name": "",
          "type": "uint256"
        }
      ],
      "stateMutability": "view",
      "type": "function",
      "constant": true
    },
    {
      "inputs": [
        {
          "internalType": "uint256",
          "name": "",
          "type": "uint256"
        }
      ],
      "name": "colors",
      "outputs": [
        {
          "internalType": "string",
          "name": "",
          "type": "string"
        }
      ],
      "stateMutability": "view",
      "type": "function",
      "constant": true
    },
    {
      "inputs": [
        {
          "internalType": "uint256",
          "name": "tokenId",
          "type": "uint256"
        }
      ],
      "name": "getApproved",
      "outputs": [
        {
          "internalType": "address",
          "name": "",
          "type": "address"
        }
      ],
      "stateMutability": "view",
      "type": "function",
      "constant": true
    },
    {
      "inputs": [
        {
          "internalType": "address",
          "name": "owner",
          "type": "address"
        },
        {
          "internalType": "address",
          "name": "operator",
          "type": "address"
        }
      ],
      "name": "isApprovedForAll",
      "outputs": [
        {
          "internalType": "bool",
          "name": "",
          "type": "bool"
        }
      ],
      "stateMutability": "view",
      "type": "function",
      "constant": true
    },
    {
      "inputs": [],
      "name": "name",
      "outputs": [
        {
          "internalType": "string",
          "name": "",
          "type": "string"
        }
      ],
      "stateMutability": "view",
      "type": "function",
      "constant": true
    },
    {
      "inputs": [
        {
          "internalType": "uint256",
          "name": "tokenId",
          "type": "uint256"
        }
      ],
      "name": "ownerOf",
      "outputs": [
        {
          "internalType": "address",
          "name": "",
          "type": "address"
        }
      ],
      "stateMutability": "view",
      "type": "function",
      "constant": true
    },
    {
      "inputs": [
        {
          "internalType": "address",
          "name": "from",
          "type": "address"
        },
        {
          "internalType": "address",
          "name": "to",
          "type": "address"
        },
        {
          "internalType": "uint256",
          "name": "tokenId",
          "type": "uint256"
        }
      ],
      "name": "safeTransferFrom",
      "outputs": [],
      "stateMutability": "nonpayable",
      "type": "function"
    },
    {
      "inputs": [
        {
          "internalType": "address",
          "name": "from",
          "type": "address"
        },
        {
          "internalType": "address",
          "name": "to",
          "type": "address"
        },
        {
          "internalType": "uint256",
          "name": "tokenId",
          "type": "uint256"
        },
        {
          "internalType": "bytes",
          "name": "_data",
          "type": "bytes"
        }
      ],
      "name": "safeTransferFrom",
      "outputs": [],
      "stateMutability": "nonpayable",
      "type": "function"
    },
    {
      "inputs": [
        {
          "internalType": "address",
          "name": "operator",
          "type": "address"
        },
        {
          "internalType": "bool",
          "name": "approved",
          "type": "bool"
        }
      ],
      "name": "setApprovalForAll",
      "outputs": [],
      "stateMutability": "nonpayable",
      "type": "function"
    },
    {
      "inputs": [
        {
          "internalType": "bytes4",
          "name": "interfaceId",
          "type": "bytes4"
        }
      ],
      "name": "supportsInterface",
      "outputs": [
        {
          "internalType": "bool",
          "name": "",
          "type": "bool"
        }
      ],
      "stateMutability": "view",
      "type": "function",
      "constant": true
    },
    {
      "inputs": [],
      "name": "symbol",
      "outputs": [
        {
          "internalType": "string",
          "name": "",
          "type": "string"
        }
      ],
      "stateMutability": "view",
      "type": "function",
      "constant": true
    },
    {
      "inputs": [
        {
          "internalType": "uint256",
          "name": "index",
          "type": "uint256"
        }
      ],
      "name": "tokenByIndex",
      "outputs": [
        {
          "internalType": "uint256",
          "name": "",
          "type": "uint256"
        }
      ],
      "stateMutability": "view",
      "type": "function",
      "constant": true
    },
    {
      "inputs": [
        {
          "internalType": "address",
          "name": "owner",
          "type": "address"
        },
        {
          "internalType": "uint256",
          "name": "index",
          "type": "uint256"
        }
      ],
      "name": "tokenOfOwnerByIndex",
      "outputs": [
        {
          "internalType": "uint256",
          "name": "",
          "type": "uint256"
        }
      ],
      "stateMutability": "view",
      "type": "function",
      "constant": true
    },
    {
      "inputs": [
        {
          "internalType": "uint256",
          "name": "tokenId",
          "type": "uint256"
        }
      ],
      "name": "tokenURI",
      "outputs": [
        {
          "internalType": "string",
          "name": "",
          "type": "string"
        }
      ],
      "stateMutability": "view",
      "type": "function",
      "constant": true
    },
    {
      "inputs": [],
      "name": "totalSupply",
      "outputs": [
        {
          "internalType": "uint256",
          "name": "",
          "type": "uint256"
        }
      ],
      "stateMutability": "view",
      "type": "function",
      "constant": true
    },
    {
      "inputs": [
        {
          "internalType": "address",
          "name": "from",
          "type": "address"
        },
        {
          "internalType": "address",
          "name": "to",
          "type": "address"
        },
        {
          "internalType": "uint256",
          "name": "tokenId",
          "type": "uint256"
        }
      ],
      "name": "transferFrom",
      "outputs": [],
      "stateMutability": "nonpayable",
      "type": "function"
    },
    {
      "inputs": [
        {
          "internalType": "string",
          "name": "_color",
          "type": "string"
        }
      ],
      "name": "mint",
      "outputs": [],
      "stateMutability": "nonpayable",
      "type": "function"
    }
  ],
  "bytecode": "0x60806040523480156200001157600080fd5b506040518060400160405280600581526020017f436f6c6f720000000000000000000000000000000000000000000000000000008152506040518060400160405280600581526020017f434f4c4f52000000000000000000000000000000000000000000000000000000815250816000908051906020019062000096929190620000b8565b508060019080519060200190620000af929190620000b8565b505050620001cd565b828054620000c69062000168565b90600052602060002090601f016020900481019282620000ea576000855562000136565b82601f106200010557805160ff191683800117855562000136565b8280016001018555821562000136579182015b828111156200013557825182559160200191906001019062000118565b5b50905062000145919062000149565b5090565b5b80821115620001645760008160009055506001016200014a565b5090565b600060028204905060018216806200018157607f821691505b602082108114156200019857620001976200019e565b5b50919050565b7f4e487b7100000000000000000000000000000000000000000000000000000000600052602260045260246000fd5b6131aa80620001dd6000396000f3fe608060405234801561001057600080fd5b50600436106101165760003560e01c80636352211e116100a2578063b88d4fde11610071578063b88d4fde14610305578063bd11f69d14610321578063c87b56dd14610351578063d85d3d2714610381578063e985e9c51461039d57610116565b80636352211e1461026b57806370a082311461029b57806395d89b41146102cb578063a22cb465146102e957610116565b806318160ddd116100e957806318160ddd146101b557806323b872dd146101d35780632f745c59146101ef57806342842e0e1461021f5780634f6ccce71461023b57610116565b806301ffc9a71461011b57806306fdde031461014b578063081812fc14610169578063095ea7b314610199575b600080fd5b61013560048036038101906101309190612179565b6103cd565b60405161014291906125eb565b60405180910390f35b610153610447565b6040516101609190612606565b60405180910390f35b610183600480360381019061017e919061221c565b6104d9565b6040516101909190612584565b60405180910390f35b6101b360048036038101906101ae9190612139565b61055e565b005b6101bd610676565b6040516101ca9190612828565b60405180910390f35b6101ed60048036038101906101e89190612023565b610683565b005b61020960048036038101906102049190612139565b6106e3565b6040516102169190612828565b60405180910390f35b61023960048036038101906102349190612023565b610788565b005b6102556004803603810190610250919061221c565b6107a8565b6040516102629190612828565b60405180910390f35b6102856004803603810190610280919061221c565b610819565b6040516102929190612584565b60405180910390f35b6102b560048036038101906102b09190611fb6565b6108cb565b6040516102c29190612828565b60405180910390f35b6102d3610983565b6040516102e09190612606565b60405180910390f35b61030360048036038101906102fe91906120f9565b610a15565b005b61031f600480360381019061031a9190612076565b610b96565b005b61033b6004803603810190610336919061221c565b610bf8565b6040516103489190612606565b60405180910390f35b61036b6004803603810190610366919061221c565b610ca4565b6040516103789190612606565b60405180910390f35b61039b600480360381019061039691906121d3565b610d4b565b005b6103b760048036038101906103b29190611fe3565b610e18565b6040516103c491906125eb565b60405180910390f35b60007f780e9d63000000000000000000000000000000000000000000000000000000007bffffffffffffffffffffffffffffffffffffffffffffffffffffffff1916827bffffffffffffffffffffffffffffffffffffffffffffffffffffffff19161480610440575061043f82610eac565b5b9050919050565b60606000805461045690612a7e565b80601f016020809104026020016040519081016040528092919081815260200182805461048290612a7e565b80156104cf5780601f106104a4576101008083540402835291602001916104cf565b820191906000526020600020905b8154815290600101906020018083116104b257829003601f168201915b5050505050905090565b60006104e482610f8e565b610523576040517f08c379a000000000000000000000000000000000000000000000000000000000815260040161051a90612768565b60405180910390fd5b6004600083815260200190815260200160002060009054906101000a900473ffffffffffffffffffffffffffffffffffffffff169050919050565b600061056982610819565b90508073ffffffffffffffffffffffffffffffffffffffff168373ffffffffffffffffffffffffffffffffffffffff1614156105da576040517f08c379a00000000000000000000000000000000000000000000000000000000081526004016105d1906127c8565b60405180910390fd5b8073ffffffffffffffffffffffffffffffffffffffff166105f9610ffa565b73ffffffffffffffffffffffffffffffffffffffff161480610628575061062781610622610ffa565b610e18565b5b610667576040517f08c379a000000000000000000000000000000000000000000000000000000000815260040161065e906126e8565b60405180910390fd5b6106718383611002565b505050565b6000600880549050905090565b61069461068e610ffa565b826110bb565b6106d3576040517f08c379a00000000000000000000000000000000000000000000000000000000081526004016106ca906127e8565b60405180910390fd5b6106de838383611199565b505050565b60006106ee836108cb565b821061072f576040517f08c379a000000000000000000000000000000000000000000000000000000000815260040161072690612628565b60405180910390fd5b600660008473ffffffffffffffffffffffffffffffffffffffff1673ffffffffffffffffffffffffffffffffffffffff168152602001908152602001600020600083815260200190815260200160002054905092915050565b6107a383838360405180602001604052806000815250610b96565b505050565b60006107b2610676565b82106107f3576040517f08c379a00000000000000000000000000000000000000000000000000000000081526004016107ea90612808565b60405180910390fd5b6008828154811061080757610806612c17565b5b90600052602060002001549050919050565b6000806002600084815260200190815260200160002060009054906101000a900473ffffffffffffffffffffffffffffffffffffffff169050600073ffffffffffffffffffffffffffffffffffffffff168173ffffffffffffffffffffffffffffffffffffffff1614156108c2576040517f08c379a00000000000000000000000000000000000000000000000000000000081526004016108b990612728565b60405180910390fd5b80915050919050565b60008073ffffffffffffffffffffffffffffffffffffffff168273ffffffffffffffffffffffffffffffffffffffff16141561093c576040517f08c379a000000000000000000000000000000000000000000000000000000000815260040161093390612708565b60405180910390fd5b600360008373ffffffffffffffffffffffffffffffffffffffff1673ffffffffffffffffffffffffffffffffffffffff168152602001908152602001600020549050919050565b60606001805461099290612a7e565b80601f01602080910402602001604051908101604052809291908181526020018280546109be90612a7e565b8015610a0b5780601f106109e057610100808354040283529160200191610a0b565b820191906000526020600020905b8154815290600101906020018083116109ee57829003601f168201915b5050505050905090565b610a1d610ffa565b73ffffffffffffffffffffffffffffffffffffffff168273ffffffffffffffffffffffffffffffffffffffff161415610a8b576040517f08c379a0000000000000000000000000000000000000000000000000000000008152600401610a82906126a8565b60405180910390fd5b8060056000610a98610ffa565b73ffffffffffffffffffffffffffffffffffffffff1673ffffffffffffffffffffffffffffffffffffffff16815260200190815260200160002060008473ffffffffffffffffffffffffffffffffffffffff1673ffffffffffffffffffffffffffffffffffffffff16815260200190815260200160002060006101000a81548160ff0219169083151502179055508173ffffffffffffffffffffffffffffffffffffffff16610b45610ffa565b73ffffffffffffffffffffffffffffffffffffffff167f17307eab39ab6107e8899845ad3d59bd9653f200f220920489ca2b5937696c3183604051610b8a91906125eb565b60405180910390a35050565b610ba7610ba1610ffa565b836110bb565b610be6576040517f08c379a0000000000000000000000000000000000000000000000000000000008152600401610bdd906127e8565b60405180910390fd5b610bf2848484846113f5565b50505050565b600a8181548110610c0857600080fd5b906000526020600020016000915090508054610c2390612a7e565b80601f0160208091040260200160405190810160405280929190818152602001828054610c4f90612a7e565b8015610c9c5780601f10610c7157610100808354040283529160200191610c9c565b820191906000526020600020905b815481529060010190602001808311610c7f57829003601f168201915b505050505081565b6060610caf82610f8e565b610cee576040517f08c379a0000000000000000000000000000000000000000000000000000000008152600401610ce5906127a8565b60405180910390fd5b6000610cf8611451565b90506000815111610d185760405180602001604052806000815250610d43565b80610d2284611468565b604051602001610d33929190612560565b6040516020818303038152906040525b915050919050565b600b81604051610d5b9190612549565b908152602001604051809103902060009054906101000a900460ff1615610d8157600080fd5b600a81908060018154018082558091505060019003906000526020600020016000909190919091509080519060200190610dbc929190611dca565b5060006001600a80549050610dd19190612994565b9050610ddd33826115c9565b6001600b83604051610def9190612549565b908152602001604051809103902060006101000a81548160ff0219169083151502179055505050565b6000600560008473ffffffffffffffffffffffffffffffffffffffff1673ffffffffffffffffffffffffffffffffffffffff16815260200190815260200160002060008373ffffffffffffffffffffffffffffffffffffffff1673ffffffffffffffffffffffffffffffffffffffff16815260200190815260200160002060009054906101000a900460ff16905092915050565b60007f80ac58cd000000000000000000000000000000000000000000000000000000007bffffffffffffffffffffffffffffffffffffffffffffffffffffffff1916827bffffffffffffffffffffffffffffffffffffffffffffffffffffffff19161480610f7757507f5b5e139f000000000000000000000000000000000000000000000000000000007bffffffffffffffffffffffffffffffffffffffffffffffffffffffff1916827bffffffffffffffffffffffffffffffffffffffffffffffffffffffff1916145b80610f875750610f8682611797565b5b9050919050565b60008073ffffffffffffffffffffffffffffffffffffffff166002600084815260200190815260200160002060009054906101000a900473ffffffffffffffffffffffffffffffffffffffff1673ffffffffffffffffffffffffffffffffffffffff1614159050919050565b600033905090565b816004600083815260200190815260200160002060006101000a81548173ffffffffffffffffffffffffffffffffffffffff021916908373ffffffffffffffffffffffffffffffffffffffff160217905550808273ffffffffffffffffffffffffffffffffffffffff1661107583610819565b73ffffffffffffffffffffffffffffffffffffffff167f8c5be1e5ebec7d5bd14f71427d1e84f3dd0314c0f7b2291e5b200ac8c7c3b92560405160405180910390a45050565b60006110c682610f8e565b611105576040517f08c379a00000000000000000000000000000000000000000000000000000000081526004016110fc906126c8565b60405180910390fd5b600061111083610819565b90508073ffffffffffffffffffffffffffffffffffffffff168473ffffffffffffffffffffffffffffffffffffffff16148061117f57508373ffffffffffffffffffffffffffffffffffffffff16611167846104d9565b73ffffffffffffffffffffffffffffffffffffffff16145b80611190575061118f8185610e18565b5b91505092915050565b8273ffffffffffffffffffffffffffffffffffffffff166111b982610819565b73ffffffffffffffffffffffffffffffffffffffff161461120f576040517f08c379a000000000000000000000000000000000000000000000000000000000815260040161120690612788565b60405180910390fd5b600073ffffffffffffffffffffffffffffffffffffffff168273ffffffffffffffffffffffffffffffffffffffff16141561127f576040517f08c379a000000000000000000000000000000000000000000000000000000000815260040161127690612688565b60405180910390fd5b61128a838383611801565b611295600082611002565b6001600360008573ffffffffffffffffffffffffffffffffffffffff1673ffffffffffffffffffffffffffffffffffffffff16815260200190815260200160002060008282546112e59190612994565b925050819055506001600360008473ffffffffffffffffffffffffffffffffffffffff1673ffffffffffffffffffffffffffffffffffffffff168152602001908152602001600020600082825461133c919061290d565b92505081905550816002600083815260200190815260200160002060006101000a81548173ffffffffffffffffffffffffffffffffffffffff021916908373ffffffffffffffffffffffffffffffffffffffff160217905550808273ffffffffffffffffffffffffffffffffffffffff168473ffffffffffffffffffffffffffffffffffffffff167fddf252ad1be2c89b69c2b068fc378daa952ba7f163c4a11628f55a4df523b3ef60405160405180910390a4505050565b611400848484611199565b61140c84848484611915565b61144b576040517f08c379a000000000000000000000000000000000000000000000000000000000815260040161144290612648565b60405180910390fd5b50505050565b606060405180602001604052806000815250905090565b606060008214156114b0576040518060400160405280600181526020017f300000000000000000000000000000000000000000000000000000000000000081525090506115c4565b600082905060005b600082146114e25780806114cb90612ae1565b915050600a826114db9190612963565b91506114b8565b60008167ffffffffffffffff8111156114fe576114fd612c46565b5b6040519080825280601f01601f1916602001820160405280156115305781602001600182028036833780820191505090505b5090505b600085146115bd576001826115499190612994565b9150600a856115589190612b2a565b6030611564919061290d565b60f81b81838151811061157a57611579612c17565b5b60200101907effffffffffffffffffffffffffffffffffffffffffffffffffffffffffffff1916908160001a905350600a856115b69190612963565b9450611534565b8093505050505b919050565b600073ffffffffffffffffffffffffffffffffffffffff168273ffffffffffffffffffffffffffffffffffffffff161415611639576040517f08c379a000000000000000000000000000000000000000000000000000000000815260040161163090612748565b60405180910390fd5b61164281610f8e565b15611682576040517f08c379a000000000000000000000000000000000000000000000000000000000815260040161167990612668565b60405180910390fd5b61168e60008383611801565b6001600360008473ffffffffffffffffffffffffffffffffffffffff1673ffffffffffffffffffffffffffffffffffffffff16815260200190815260200160002060008282546116de919061290d565b92505081905550816002600083815260200190815260200160002060006101000a81548173ffffffffffffffffffffffffffffffffffffffff021916908373ffffffffffffffffffffffffffffffffffffffff160217905550808273ffffffffffffffffffffffffffffffffffffffff16600073ffffffffffffffffffffffffffffffffffffffff167fddf252ad1be2c89b69c2b068fc378daa952ba7f163c4a11628f55a4df523b3ef60405160405180910390a45050565b60007f01ffc9a7000000000000000000000000000000000000000000000000000000007bffffffffffffffffffffffffffffffffffffffffffffffffffffffff1916827bffffffffffffffffffffffffffffffffffffffffffffffffffffffff1916149050919050565b61180c838383611aac565b600073ffffffffffffffffffffffffffffffffffffffff168373ffffffffffffffffffffffffffffffffffffffff16141561184f5761184a81611ab1565b61188e565b8173ffffffffffffffffffffffffffffffffffffffff168373ffffffffffffffffffffffffffffffffffffffff161461188d5761188c8382611afa565b5b5b600073ffffffffffffffffffffffffffffffffffffffff168273ffffffffffffffffffffffffffffffffffffffff1614156118d1576118cc81611c67565b611910565b8273ffffffffffffffffffffffffffffffffffffffff168273ffffffffffffffffffffffffffffffffffffffff161461190f5761190e8282611d38565b5b5b505050565b60006119368473ffffffffffffffffffffffffffffffffffffffff16611db7565b15611a9f578373ffffffffffffffffffffffffffffffffffffffff1663150b7a0261195f610ffa565b8786866040518563ffffffff1660e01b8152600401611981949392919061259f565b602060405180830381600087803b15801561199b57600080fd5b505af19250505080156119cc57506040513d601f19601f820116820180604052508101906119c991906121a6565b60015b611a4f573d80600081146119fc576040519150601f19603f3d011682016040523d82523d6000602084013e611a01565b606091505b50600081511415611a47576040517f08c379a0000000000000000000000000000000000000000000000000000000008152600401611a3e90612648565b60405180910390fd5b805181602001fd5b63150b7a0260e01b7bffffffffffffffffffffffffffffffffffffffffffffffffffffffff1916817bffffffffffffffffffffffffffffffffffffffffffffffffffffffff191614915050611aa4565b600190505b949350505050565b505050565b6008805490506009600083815260200190815260200160002081905550600881908060018154018082558091505060019003906000526020600020016000909190919091505550565b60006001611b07846108cb565b611b119190612994565b9050600060076000848152602001908152602001600020549050818114611bf6576000600660008673ffffffffffffffffffffffffffffffffffffffff1673ffffffffffffffffffffffffffffffffffffffff168152602001908152602001600020600084815260200190815260200160002054905080600660008773ffffffffffffffffffffffffffffffffffffffff1673ffffffffffffffffffffffffffffffffffffffff168152602001908152602001600020600084815260200190815260200160002081905550816007600083815260200190815260200160002081905550505b6007600084815260200190815260200160002060009055600660008573ffffffffffffffffffffffffffffffffffffffff1673ffffffffffffffffffffffffffffffffffffffff16815260200190815260200160002060008381526020019081526020016000206000905550505050565b60006001600880549050611c7b9190612994565b9050600060096000848152602001908152602001600020549050600060088381548110611cab57611caa612c17565b5b906000526020600020015490508060088381548110611ccd57611ccc612c17565b5b906000526020600020018190555081600960008381526020019081526020016000208190555060096000858152602001908152602001600020600090556008805480611d1c57611d1b612be8565b5b6001900381819060005260206000200160009055905550505050565b6000611d43836108cb565b905081600660008573ffffffffffffffffffffffffffffffffffffffff1673ffffffffffffffffffffffffffffffffffffffff168152602001908152602001600020600083815260200190815260200160002081905550806007600084815260200190815260200160002081905550505050565b600080823b905060008111915050919050565b828054611dd690612a7e565b90600052602060002090601f016020900481019282611df85760008555611e3f565b82601f10611e1157805160ff1916838001178555611e3f565b82800160010185558215611e3f579182015b82811115611e3e578251825591602001919060010190611e23565b5b509050611e4c9190611e50565b5090565b5b80821115611e69576000816000905550600101611e51565b5090565b6000611e80611e7b84612868565b612843565b905082815260208101848484011115611e9c57611e9b612c7a565b5b611ea7848285612a3c565b509392505050565b6000611ec2611ebd84612899565b612843565b905082815260208101848484011115611ede57611edd612c7a565b5b611ee9848285612a3c565b509392505050565b600081359050611f0081613118565b92915050565b600081359050611f158161312f565b92915050565b600081359050611f2a81613146565b92915050565b600081519050611f3f81613146565b92915050565b600082601f830112611f5a57611f59612c75565b5b8135611f6a848260208601611e6d565b91505092915050565b600082601f830112611f8857611f87612c75565b5b8135611f98848260208601611eaf565b91505092915050565b600081359050611fb08161315d565b92915050565b600060208284031215611fcc57611fcb612c84565b5b6000611fda84828501611ef1565b91505092915050565b60008060408385031215611ffa57611ff9612c84565b5b600061200885828601611ef1565b925050602061201985828601611ef1565b9150509250929050565b60008060006060848603121561203c5761203b612c84565b5b600061204a86828701611ef1565b935050602061205b86828701611ef1565b925050604061206c86828701611fa1565b9150509250925092565b600080600080608085870312156120905761208f612c84565b5b600061209e87828801611ef1565b94505060206120af87828801611ef1565b93505060406120c087828801611fa1565b925050606085013567ffffffffffffffff8111156120e1576120e0612c7f565b5b6120ed87828801611f45565b91505092959194509250565b600080604083850312156121105761210f612c84565b5b600061211e85828601611ef1565b925050602061212f85828601611f06565b9150509250929050565b600080604083850312156121505761214f612c84565b5b600061215e85828601611ef1565b925050602061216f85828601611fa1565b9150509250929050565b60006020828403121561218f5761218e612c84565b5b600061219d84828501611f1b565b91505092915050565b6000602082840312156121bc576121bb612c84565b5b60006121ca84828501611f30565b91505092915050565b6000602082840312156121e9576121e8612c84565b5b600082013567ffffffffffffffff81111561220757612206612c7f565b5b61221384828501611f73565b91505092915050565b60006020828403121561223257612231612c84565b5b600061224084828501611fa1565b91505092915050565b612252816129c8565b82525050565b612261816129da565b82525050565b6000612272826128ca565b61227c81856128e0565b935061228c818560208601612a4b565b61229581612c89565b840191505092915050565b60006122ab826128d5565b6122b581856128f1565b93506122c5818560208601612a4b565b6122ce81612c89565b840191505092915050565b60006122e4826128d5565b6122ee8185612902565b93506122fe818560208601612a4b565b80840191505092915050565b6000612317602b836128f1565b915061232282612c9a565b604082019050919050565b600061233a6032836128f1565b915061234582612ce9565b604082019050919050565b600061235d601c836128f1565b915061236882612d38565b602082019050919050565b60006123806024836128f1565b915061238b82612d61565b604082019050919050565b60006123a36019836128f1565b91506123ae82612db0565b602082019050919050565b60006123c6602c836128f1565b91506123d182612dd9565b604082019050919050565b60006123e96038836128f1565b91506123f482612e28565b604082019050919050565b600061240c602a836128f1565b915061241782612e77565b604082019050919050565b600061242f6029836128f1565b915061243a82612ec6565b604082019050919050565b60006124526020836128f1565b915061245d82612f15565b602082019050919050565b6000612475602c836128f1565b915061248082612f3e565b604082019050919050565b60006124986029836128f1565b91506124a382612f8d565b604082019050919050565b60006124bb602f836128f1565b91506124c682612fdc565b604082019050919050565b60006124de6021836128f1565b91506124e98261302b565b604082019050919050565b60006125016031836128f1565b915061250c8261307a565b604082019050919050565b6000612524602c836128f1565b915061252f826130c9565b604082019050919050565b61254381612a32565b82525050565b600061255582846122d9565b915081905092915050565b600061256c82856122d9565b915061257882846122d9565b91508190509392505050565b60006020820190506125996000830184612249565b92915050565b60006080820190506125b46000830187612249565b6125c16020830186612249565b6125ce604083018561253a565b81810360608301526125e08184612267565b905095945050505050565b60006020820190506126006000830184612258565b92915050565b6000602082019050818103600083015261262081846122a0565b905092915050565b600060208201905081810360008301526126418161230a565b9050919050565b600060208201905081810360008301526126618161232d565b9050919050565b6000602082019050818103600083015261268181612350565b9050919050565b600060208201905081810360008301526126a181612373565b9050919050565b600060208201905081810360008301526126c181612396565b9050919050565b600060208201905081810360008301526126e1816123b9565b9050919050565b60006020820190508181036000830152612701816123dc565b9050919050565b60006020820190508181036000830152612721816123ff565b9050919050565b6000602082019050818103600083015261274181612422565b9050919050565b6000602082019050818103600083015261276181612445565b9050919050565b6000602082019050818103600083015261278181612468565b9050919050565b600060208201905081810360008301526127a18161248b565b9050919050565b600060208201905081810360008301526127c1816124ae565b9050919050565b600060208201905081810360008301526127e1816124d1565b9050919050565b60006020820190508181036000830152612801816124f4565b9050919050565b6000602082019050818103600083015261282181612517565b9050919050565b600060208201905061283d600083018461253a565b92915050565b600061284d61285e565b90506128598282612ab0565b919050565b6000604051905090565b600067ffffffffffffffff82111561288357612882612c46565b5b61288c82612c89565b9050602081019050919050565b600067ffffffffffffffff8211156128b4576128b3612c46565b5b6128bd82612c89565b9050602081019050919050565b600081519050919050565b600081519050919050565b600082825260208201905092915050565b600082825260208201905092915050565b600081905092915050565b600061291882612a32565b915061292383612a32565b9250827fffffffffffffffffffffffffffffffffffffffffffffffffffffffffffffffff0382111561295857612957612b5b565b5b828201905092915050565b600061296e82612a32565b915061297983612a32565b92508261298957612988612b8a565b5b828204905092915050565b600061299f82612a32565b91506129aa83612a32565b9250828210156129bd576129bc612b5b565b5b828203905092915050565b60006129d382612a12565b9050919050565b60008115159050919050565b60007fffffffff0000000000000000000000000000000000000000000000000000000082169050919050565b600073ffffffffffffffffffffffffffffffffffffffff82169050919050565b6000819050919050565b82818337600083830152505050565b60005b83811015612a69578082015181840152602081019050612a4e565b83811115612a78576000848401525b50505050565b60006002820490506001821680612a9657607f821691505b60208210811415612aaa57612aa9612bb9565b5b50919050565b612ab982612c89565b810181811067ffffffffffffffff82111715612ad857612ad7612c46565b5b80604052505050565b6000612aec82612a32565b91507fffffffffffffffffffffffffffffffffffffffffffffffffffffffffffffffff821415612b1f57612b1e612b5b565b5b600182019050919050565b6000612b3582612a32565b9150612b4083612a32565b925082612b5057612b4f612b8a565b5b828206905092915050565b7f4e487b7100000000000000000000000000000000000000000000000000000000600052601160045260246000fd5b7f4e487b7100000000000000000000000000000000000000000000000000000000600052601260045260246000fd5b7f4e487b7100000000000000000000000000000000000000000000000000000000600052602260045260246000fd5b7f4e487b7100000000000000000000000000000000000000000000000000000000600052603160045260246000fd5b7f4e487b7100000000000000000000000000000000000000000000000000000000600052603260045260246000fd5b7f4e487b7100000000000000000000000000000000000000000000000000000000600052604160045260246000fd5b600080fd5b600080fd5b600080fd5b600080fd5b6000601f19601f8301169050919050565b7f455243373231456e756d657261626c653a206f776e657220696e646578206f7560008201527f74206f6620626f756e6473000000000000000000000000000000000000000000602082015250565b7f4552433732313a207472616e7366657220746f206e6f6e20455243373231526560008201527f63656976657220696d706c656d656e7465720000000000000000000000000000602082015250565b7f4552433732313a20746f6b656e20616c7265616479206d696e74656400000000600082015250565b7f4552433732313a207472616e7366657220746f20746865207a65726f2061646460008201527f7265737300000000000000000000000000000000000000000000000000000000602082015250565b7f4552433732313a20617070726f766520746f2063616c6c657200000000000000600082015250565b7f4552433732313a206f70657261746f7220717565727920666f72206e6f6e657860008201527f697374656e7420746f6b656e0000000000000000000000000000000000000000602082015250565b7f4552433732313a20617070726f76652063616c6c6572206973206e6f74206f7760008201527f6e6572206e6f7220617070726f76656420666f7220616c6c0000000000000000602082015250565b7f4552433732313a2062616c616e636520717565727920666f7220746865207a6560008201527f726f206164647265737300000000000000000000000000000000000000000000602082015250565b7f4552433732313a206f776e657220717565727920666f72206e6f6e657869737460008201527f656e7420746f6b656e0000000000000000000000000000000000000000000000602082015250565b7f4552433732313a206d696e7420746f20746865207a65726f2061646472657373600082015250565b7f4552433732313a20617070726f76656420717565727920666f72206e6f6e657860008201527f697374656e7420746f6b656e0000000000000000000000000000000000000000602082015250565b7f4552433732313a207472616e73666572206f6620746f6b656e2074686174206960008201527f73206e6f74206f776e0000000000000000000000000000000000000000000000602082015250565b7f4552433732314d657461646174613a2055524920717565727920666f72206e6f60008201527f6e6578697374656e7420746f6b656e0000000000000000000000000000000000602082015250565b7f4552433732313a20617070726f76616c20746f2063757272656e74206f776e6560008201527f7200000000000000000000000000000000000000000000000000000000000000602082015250565b7f4552433732313a207472616e736665722063616c6c6572206973206e6f74206f60008201527f776e6572206e6f7220617070726f766564000000000000000000000000000000602082015250565b7f455243373231456e756d657261626c653a20676c6f62616c20696e646578206f60008201527f7574206f6620626f756e64730000000000000000000000000000000000000000602082015250565b613121816129c8565b811461312c57600080fd5b50565b613138816129da565b811461314357600080fd5b50565b61314f816129e6565b811461315a57600080fd5b50565b61316681612a32565b811461317157600080fd5b5056fea26469706673582212207f810ade6dd9d8396502f55737bf7703f0d9005676f543c9ded6bdec2a1e382f64736f6c63430008060033",
  "immutableReferences": {},
  "source": "pragma solidity ^0.8.0;\n\nimport \"@openzeppelin/contracts/token/ERC721/ERC721.sol\";\nimport \"@openzeppelin/contracts/token/ERC721/extensions/ERC721URIStorage.sol\";\nimport \"@openzeppelin/contracts/utils/Counters.sol\";\nimport \"@openzeppelin/contracts/token/ERC721/extensions/ERC721Enumerable.sol\";\n\ncontract Color is ERC721Enumerable {\n    string[] public colors;\n    mapping(string => bool) _colorExists;\n\n    constructor() ERC721(\"Color\", \"COLOR\") {}\n\n    function mint(string memory _color) public{\n        // require a unique color\n        require(!_colorExists[_color]);\n        //Color  add it\n        colors.push(_color);\n        uint _id = colors.length -1; \n        _mint(msg.sender, _id);\n        _colorExists[_color] = true;\n        // Call the mint function\n        //Color track it\n    }\n}",
  "sourcePath": "/Volumes/General/blockchain/nft/contracts/Color.sol",
  "compiler": {
    "name": "solc",
    "version": "0.8.6+commit.11564f7e.Emscripten.clang"
  },
  "schemaVersion": "3.4.1",
  "updatedAt": "2021-07-04T14:57:34.290Z",
  "networkType": "ethereum",
  "devdoc": {
    "kind": "dev",
    "methods": {
      "approve(address,uint256)": {
        "details": "See {IERC721-approve}."
      },
      "balanceOf(address)": {
        "details": "See {IERC721-balanceOf}."
      },
      "getApproved(uint256)": {
        "details": "See {IERC721-getApproved}."
      },
      "isApprovedForAll(address,address)": {
        "details": "See {IERC721-isApprovedForAll}."
      },
      "name()": {
        "details": "See {IERC721Metadata-name}."
      },
      "ownerOf(uint256)": {
        "details": "See {IERC721-ownerOf}."
      },
      "safeTransferFrom(address,address,uint256)": {
        "details": "See {IERC721-safeTransferFrom}."
      },
      "safeTransferFrom(address,address,uint256,bytes)": {
        "details": "See {IERC721-safeTransferFrom}."
      },
      "setApprovalForAll(address,bool)": {
        "details": "See {IERC721-setApprovalForAll}."
      },
      "supportsInterface(bytes4)": {
        "details": "See {IERC165-supportsInterface}."
      },
      "symbol()": {
        "details": "See {IERC721Metadata-symbol}."
      },
      "tokenByIndex(uint256)": {
        "details": "See {IERC721Enumerable-tokenByIndex}."
      },
      "tokenOfOwnerByIndex(address,uint256)": {
        "details": "See {IERC721Enumerable-tokenOfOwnerByIndex}."
      },
      "tokenURI(uint256)": {
        "details": "See {IERC721Metadata-tokenURI}."
      },
      "totalSupply()": {
        "details": "See {IERC721Enumerable-totalSupply}."
      },
      "transferFrom(address,address,uint256)": {
        "details": "See {IERC721-transferFrom}."
      }
    },
    "version": 1
  },
  "userdoc": {
    "kind": "user",
    "methods": {},
    "version": 1
  }
}